{
  "contractName": "Adoption",
  "abi": [
    {
      "constant": true,
      "inputs": [
        {
          "name": "",
          "type": "uint256"
        }
      ],
      "name": "adopters",
      "outputs": [
        {
          "name": "",
          "type": "address"
        }
      ],
      "payable": false,
      "stateMutability": "view",
      "type": "function"
    },
    {
      "constant": true,
      "inputs": [
        {
          "name": "",
          "type": "uint256"
        }
      ],
      "name": "prices",
      "outputs": [
        {
          "name": "",
          "type": "uint256"
        }
      ],
      "payable": false,
      "stateMutability": "view",
      "type": "function"
    },
    {
      "constant": false,
      "inputs": [
        {
          "name": "petId",
          "type": "uint256"
        }
      ],
      "name": "adopt",
      "outputs": [
        {
          "name": "",
          "type": "uint256"
        }
      ],
      "payable": false,
      "stateMutability": "nonpayable",
      "type": "function"
    },
    {
      "constant": true,
      "inputs": [],
      "name": "getAdopters",
      "outputs": [
        {
          "name": "",
          "type": "address[16]"
        }
      ],
      "payable": false,
      "stateMutability": "view",
      "type": "function"
    },
    {
      "constant": true,
      "inputs": [
        {
          "name": "petId",
          "type": "uint256"
        }
      ],
      "name": "getPrice",
      "outputs": [
        {
          "name": "",
          "type": "uint256"
        }
      ],
      "payable": false,
      "stateMutability": "view",
      "type": "function"
    }
  ],
  "bytecode": "0x6080604052604051806102000160405280600360ff168152602001600360ff168152602001600260ff168152602001600260ff168152602001600560ff168152602001600160ff168152602001600360ff168152602001600360ff168152602001600260ff168152602001600160ff168152602001600360ff168152602001600260ff168152602001600560ff168152602001600360ff168152602001600260ff168152602001600160ff1681525060109060106100be9291906100d1565b503480156100cb57600080fd5b5061013b565b8260108101928215610105579160200282015b82811115610104578251829060ff169055916020019190600101906100e4565b5b5090506101129190610116565b5090565b61013891905b8082111561013457600081600090555060010161011c565b5090565b90565b6103948061014a6000396000f3fe608060405234801561001057600080fd5b50600436106100575760003560e01c80633de4eb171461005c57806343ae80d3146100a25780638588b2c514610110578063bc31c1c114610152578063e757223014610194575b600080fd5b6100646101d6565b6040518082601060200280838360005b8381101561008f578082015181840152602081019050610074565b5050505090500191505060405180910390f35b6100ce600480360360208110156100b857600080fd5b8101908080359060200190929190505050610257565b604051808273ffffffffffffffffffffffffffffffffffffffff1673ffffffffffffffffffffffffffffffffffffffff16815260200191505060405180910390f35b61013c6004803603602081101561012657600080fd5b810190808035906020019092919050505061028a565b6040518082815260200191505060405180910390f35b61017e6004803603602081101561016857600080fd5b81019080803590602001909291905050506102fb565b6040518082815260200191505060405180910390f35b6101c0600480360360208110156101aa57600080fd5b8101908080359060200190929190505050610313565b6040518082815260200191505060405180910390f35b6101de610345565b600060108060200260405190810160405280929190826010801561024d576020028201915b8160009054906101000a900473ffffffffffffffffffffffffffffffffffffffff1673ffffffffffffffffffffffffffffffffffffffff1681526020019060010190808311610203575b5050505050905090565b6000816010811061026457fe5b016000915054906101000a900473ffffffffffffffffffffffffffffffffffffffff1681565b600080821015801561029d5750600f8211155b6102a657600080fd5b33600083601081106102b457fe5b0160006101000a81548173ffffffffffffffffffffffffffffffffffffffff021916908373ffffffffffffffffffffffffffffffffffffffff160217905550819050919050565b6010816010811061030857fe5b016000915090505481565b60008082101580156103265750600f8211155b61032f57600080fd5b6010826010811061033c57fe5b01549050919050565b60405180610200016040528060109060208202803883398082019150509050509056fea165627a7a72305820b2642d9475b9ffb48b51539be3c4d353737e7a4c93fc8dec5b2a6356ea3554960029",
  "source": "pragma solidity ^0.5.0;\r\n\r\ncontract Adoption {\r\n\taddress[16] public adopters;\r\n\tuint[16] public prices = [3, 3, 2, 2, 5, 1, 3, 3, 2, 1, 3, 2, 5, 3, 2, 1];\r\n\r\n\t// Adopting a pet\r\n\tfunction adopt(uint petId) public returns (uint) {\r\n\t\trequire(petId >= 0 && petId <= 15);\r\n\r\n\t\tadopters[petId] = msg.sender;\r\n\t\t\r\n\r\n\t\treturn petId;\r\n\t}\r\n\r\n\t// Retrieving the adopters\r\n\tfunction getAdopters() public view returns (address[16] memory) {\r\n\t\treturn adopters;\r\n\t}\r\n\r\n\t// Retrieve price\r\n\tfunction getPrice(uint petId) public view returns (uint) {\r\n\t\trequire(petId >= 0 && petId <= 15);\r\n\t\treturn prices[petId];\r\n\t}\r\n}",
  "sourcePath": "C:/Users/skyla/Classwork/Classes/Computer Science/CIS233/Projects/Pet Shop/contracts/Adoption.sol",
  "compiler": {
    "name": "solc",
    "version": "0.5.8+commit.23d335f2.Emscripten.clang"
  },
  "schemaVersion": "3.0.16",
  "updatedAt": "2019-12-06T20:43:46.631Z",
  "devdoc": {
    "methods": {}
  },
  "userdoc": {
    "methods": {}
  }
}