{
  "contractName": "Adoption",
  "abi": [
    {
      "constant": true,
      "inputs": [
        {
          "name": "",
          "type": "uint256"
        }
      ],
      "name": "adopters",
      "outputs": [
        {
          "name": "",
          "type": "address"
        }
      ],
      "payable": false,
      "stateMutability": "view",
      "type": "function"
    },
    {
      "constant": true,
      "inputs": [
        {
          "name": "",
          "type": "uint256"
        }
      ],
      "name": "prices",
      "outputs": [
        {
          "name": "",
          "type": "uint256"
        }
      ],
      "payable": false,
      "stateMutability": "view",
      "type": "function"
    },
    {
      "constant": false,
      "inputs": [
        {
          "name": "petId",
          "type": "uint256"
        }
      ],
      "name": "adopt",
      "outputs": [
        {
          "name": "",
          "type": "uint256"
        }
      ],
      "payable": true,
      "stateMutability": "payable",
      "type": "function"
    },
    {
      "constant": true,
      "inputs": [],
      "name": "getAdopters",
      "outputs": [
        {
          "name": "",
          "type": "address[16]"
        }
      ],
      "payable": false,
      "stateMutability": "view",
      "type": "function"
    }
  ],
  "bytecode": "0x608060405234801561001057600080fd5b50610342806100206000396000f3fe60806040526004361061003f5760003560e01c80633de4eb171461004457806343ae80d3146100975780638588b2c514610112578063bc31c1c114610154575b600080fd5b34801561005057600080fd5b506100596101a3565b6040518082601060200280838360005b83811015610084578082015181840152602081019050610069565b5050505090500191505060405180910390f35b3480156100a357600080fd5b506100d0600480360360208110156100ba57600080fd5b8101908080359060200190929190505050610224565b604051808273ffffffffffffffffffffffffffffffffffffffff1673ffffffffffffffffffffffffffffffffffffffff16815260200191505060405180910390f35b61013e6004803603602081101561012857600080fd5b8101908080359060200190929190505050610257565b6040518082815260200191505060405180910390f35b34801561016057600080fd5b5061018d6004803603602081101561017757600080fd5b81019080803590602001909291905050506102db565b6040518082815260200191505060405180910390f35b6101ab6102f3565b600060108060200260405190810160405280929190826010801561021a576020028201915b8160009054906101000a900473ffffffffffffffffffffffffffffffffffffffff1673ffffffffffffffffffffffffffffffffffffffff16815260200190600101908083116101d0575b5050505050905090565b6000816010811061023157fe5b016000915054906101000a900473ffffffffffffffffffffffffffffffffffffffff1681565b600080821015801561026a5750600f8211155b61027357600080fd5b336000836010811061028157fe5b0160006101000a81548173ffffffffffffffffffffffffffffffffffffffff021916908373ffffffffffffffffffffffffffffffffffffffff16021790555034601083601081106102ce57fe5b0181905550819050919050565b601081601081106102e857fe5b016000915090505481565b60405180610200016040528060109060208202803883398082019150509050509056fea165627a7a72305820bcc9d40b5f677305ae0366e4749cd7603684d72f93f427339954a020242c54500029",
  "source": "pragma solidity ^0.5.0;\r\n\r\ncontract Adoption {\r\n\taddress[16] public adopters;\r\n\tuint[16] public prices;\r\n\r\n\t// Adopting a pet\r\n\tfunction adopt(uint petId) public payable returns (uint) {\r\n\t\trequire(petId >= 0 && petId <= 15);\r\n\r\n\t\tadopters[petId] = msg.sender;\r\n\t\tprices[petId] = msg.value;\r\n\r\n\t\treturn petId;\r\n\t}\r\n\r\n\t// Retrieving the adopters\r\n\tfunction getAdopters() public view returns (address[16] memory) {\r\n\t\treturn adopters;\r\n\t}\r\n}",
  "sourcePath": "C:/Users/Alex/Documents/CIS233/pet-shop-tutorial/contracts/Adoption.sol",
  "compiler": {
    "name": "solc",
    "version": "0.5.8+commit.23d335f2.Emscripten.clang"
  },
  "schemaVersion": "3.0.16",
  "updatedAt": "2019-11-17T15:29:24.088Z",
  "devdoc": {
    "methods": {}
  },
  "userdoc": {
    "methods": {}
  }
}